:03000000020313E5
:0C031300787FE4F6D8FD75810E02035AD5
:10000E00000004000602070C07BC07F80FF83FF0CB
:10001E00FFE03FF00FF807F807BC070C06020400DC
:10002E00102010401080910073FF15001880000002
:10003E007FFF401042084D047088007000000000E1
:10004E0004440CC63544C6480C680248228023FF7F
:10005E002292FE922A92329223FF468002000000E4
:10006E0000001FE01240124012401240FFFC1242EC
:10007E001242124212423FE21002000E0000000035
:10008E00010001004100410041004102410147FED3
:10009E00450049005100610001000300010000000D
:1000AE00000003C007E00FF01FF03FE17FC3FFFF2A
:1000BE00FFFF7FC33FE11FF00FF007E003C000001A
:1000CE00000007800FC01FE01FF01FF80FFC07FE97
:1000DE0007FE0FFC1FF81FF01FE00FC00780000087
:1000EE00000000E001F003F833F879F1FDE3FFFFC3
:1000FE00FFFFFDE379F133F803F801F000E00000B3
:10010E0000000100038007C00FE01FF03FF87FFCE6
:10011E00FFFE7FFC3FF81FF00FE007C003800100D9
:10012E00AAAA5555AAAA5555AAAA5555AAAA5555C9
:10013E00AAAA5555AAAA5555AAAA5555AAAA5555B9
:04000300020D0001E9
:1003E4005389F0438901758A1E758CFBD2A9D28C7E
:0303F400D2AF2263
:10025100D283D281C2807F04E4FEC281EF25E024F3
:1002610007F582E43400F583E0FD339283EF25E066
:100271002407F582E43400F583ED25E0F0D2810E08
:10028100BE08D7E4FEC281EF25E02406F582E434FE
:1002910000F583E0FD339283EF25E02406F582E447
:1002A1003400F583ED25E0F0D2810EBE08D7E4FEDF
:1002B100C281EF25E024FFF582E434FFF583E0FD00
:1002C100339283EF25E024FFF582E434FFF583EDDB
:1002D10025E0F0D2810EBE08D7E4FEC281EF25E011
:1002E10024FEF582E434FFF583E0FD339283EF25AC
:1002F100E024FEF582E434FFF583ED25E0F0D281C0
:100301000EBE08D71FEF6003020259D280D283C20A
:01031100806B
:0103120022C8
:03000B0002014EA1
:10014E00C0E0C083C082C0D075D000C000C004C063
:05015E0005C006C0070A
:10016300758A1E758CFB7471250CF582E43400F5D9
:1001730083E0F4900007F07470250CF582E43400FA
:10018300F583E0F4900006F07451250CF582E43415
:1001930000F583E0F4900005F07450250CF582E43B
:1001A3003400F583E0F4900004F07431250CF582FB
:1001B300E43400F583E0F4900003F07430250CF58B
:1001C30082E43400F583E0F4900002F07411250C0E
:1001D300F582E43400F583E0F4900001F074102517
:1001E3000CF582E43400F583E0F4900000F0E50DB3
:1001F300FFFD90000FF0AC0E90000EECF090000DA0
:10020300EDF090000CECF090000BEFF0AE0E9000D0
:100213000AEEF0900009EFF0900008EEF0AE0DFF4B
:10022300780108800633CE33CE92E0D8F88E0DF5F0
:0B0233000E050C050C530C1F120251AD
:10023E00D007D006D005D004D000D0D0D082D08345
:03024E00D0E032CB
:10039F00E4FFF508F509750AC3750B501203E4EF76
:1003AF00541FFEEFC413540775F020A4242EF582BA
:1003BF00E5F03400F583E5822EF582E43583F5838D
:1003CF00E493FE74102FF582E43400F583EEF00F02
:0503DF00BF80CC80FE90
:10031F0002039FE493A3F8E493A34003F68001F252
:10032F0008DFF48029E493A3F85407240CC8C333DF
:10033F00C4540F4420C8834004F456800146F6DFAE
:10034F00E4800B0102040810204080900003E47E3B
:10035F00019360BCA3FF543F30E509541FFEE493A3
:10036F00A360010ECF54C025E060A840B8E493A36A
:10037F00FAE493A3F8E493A3C8C582C8CAC583CA95
:10038F00F0A3C8C582C8CAC583CADFE9DEE780BE4D
:0100070000F8
:00000001FF
