:1002CB00000026062318306000023FE6201C27F0B2
:1002DB0020183FE600001FF000027FFE7FFE0000AB
:1002EB0000000200220413FC00080814098409FC16
:1002FB00098C08087FC00878480E3802080E0000E9
:0700030001080002090001E1
:10000E00D292D293D2947F02E4FEC293EF25E024E3
:10001E0025F582E43400F583E0FD339292EF25E07E
:10002E002425F582E43400F583ED25E0F0D2930E1D
:10003E00BE08D7E4FEC293EF25E02424F582E43413
:10004E0000F583E0FD339292EF25E02424F582E45F
:10005E003400F583ED25E0F0D2930EBE08D7E4FE12
:10006E00C293EF25E024FFF582E434FFF583E0FD33
:10007E00339292EF25E024FFF582E434FFF583ED11
:10008E0025E0F0D2930EBE08D7E4FEC293EF25E032
:10009E0024FEF582E434FFF583E0FD339292EF25E2
:1000AE00E024FEF582E434FFF583ED25E0F0D293F3
:1000BE000EBE08D71FEF6003020016C294D292D272
:0100CE00949D
:0100CF00220E
:03000B000201925D
:10019200C0E0C083C082C0D075D000C000C005C01E
:0301A20006C0078D
:1001A500E509FF900029F0AE0A900028EEF07425CD
:1001B5002508F582E43400F583E0F4900003F0743B
:1001C500242508F582E43400F583E0F4900002F07C
:1001D500900027EFF0900026EEF074052508F582D3
:1001E500E43400F583E0F4900001F074042508F58B
:1001F50082E43400F583E0F4900000F0AE09AF0A24
:100205007801EF08800633CE33CE92E0D8F88E0918
:10021500F50A05080508E508C3941F400975080097
:09022500750900750A0112000EB2
:10022E00D007D006D005D000D0D0D082D083D0E079
:01023E00328D
:10030B00438E805389F0758A34758CCFC28DD28C15
:05031B00D2A9D2AF22BF
:1000D000E4FDFFFEF50BF50C12030BED541FFCEDD8
:1000E000C4135407C43354E024CBF582E43402F53E
:1000F00083E5822CF582E43583F583E493FC740474
:100100002DF582E43400F583ECF00DBD40CD750B88
:10011000C3750C50E50C150CAA0B7002150B4A7038
:10012000F3EEC43354E024CBF582E43402F583E5E6
:10013000822FF582E43583F583E493900024F00F59
:10014000EEC43354E024CBF582E43402F583E58237
:100150002FF582E43583F583E493900025F00FEFCB
:10016000C39420400AE4FF0EEE940A4002E4FEE449
:10017000FDEDC39440509774062DF582E43400F5EC
:1001800083E0FC74042DF582E43400F583ECF00D7B
:0201900080DF0E
:0300000002023FBA
:0C023F00787FE4F6D8FD75810C02028681
:10024B000200D0E493A3F8E493A34003F68001F2F9
:10025B0008DFF48029E493A3F85407240CC8C333B4
:10026B00C4540F4420C8834004F456800146F6DF83
:10027B00E4800B0102040810204080900003E47E10
:10028B00019360BCA3FF543F30E509541FFEE49378
:10029B00A360010ECF54C025E060A840B8E493A33F
:1002AB00FAE493A3F8E493A3C8C582C8CAC583CA6A
:1002BB00F0A3C8C582C8CAC583CADFE9DEE780BE22
:01000A0000F5
:00000001FF
