:10014E006022000201002110221022102490289219
:10015E002091FFBE20B028D02490241062302310AE
:0D016E0002000000FFFF010800020900016F
:10008F00D292D293D294E4FFC293900025E0FE3334
:10009F009292EE25E0F0D2930FBF08ECE4FFC293EB
:1000AF00900024E0FE339292EE25E0F0D2930FBF42
:1000BF0008ECE4FFC293900001E0FE339292EE252C
:1000CF00E0F0D2930FBF08ECE4FFC293900000E082
:1000DF00FE339292EE25E0F0D2930FBF08ECC2945C
:0400EF00D292D29443
:0100F30022EA
:1000F400E509900025F0900024E50AF07403250832
:10010400F582E43400F583E0F4900001F0740225F4
:1001140008F582E43400F583E0F4900000F0AE09C1
:10012400AF0A7801EF08800633CE33CE92E0D8F8D8
:100134008E09F50A05080508E508C3941F4008E47C
:0A014400F508F509750A0102008FA5
:05017C001200F480FBFD
:03000000020003F8
:0C000300787FE4F6D8FD75810A02004AFF
:10000F0002017CE493A3F8E493A34003F68001F28A
:10001F0008DFF48029E493A3F85407240CC8C333F2
:10002F00C4540F4420C8834004F456800146F6DFC1
:10003F00E4800B010204081020408090014EE47E02
:10004F00019360BCA3FF543F30E509541FFEE493B6
:10005F00A360010ECF54C025E060A840B8E493A37D
:10006F00FAE493A3F8E493A3C8C582C8CAC583CAA8
:10007F00F0A3C8C582C8CAC583CADFE9DEE780BE60
:01017B000083
:00000001FF
