:030000000203B246
:0C03B200787FE4F6D8FD75810C0203F999
:10000E00000004000602070C07BC07F80FF83FF0CB
:10001E00FFE03FF00FF807F807BC070C06020400DC
:10002E00102010401080910073FF15001880000002
:10003E007FFF401042084D047088007000000000E1
:10004E0004440CC63544C6480C680248228023FF7F
:10005E002292FE922A92329223FF468002000000E4
:10006E0000001FE01240124012401240FFFC1242EC
:10007E001242124212423FE21002000E0000000035
:10008E00010001004100410041004102410147FED3
:10009E00450049005100610001000300010000000D
:1000AE00000003C007E00FF01FF03FE17FC3FFFF2A
:1000BE00FFFF7FC33FE11FF00FF007E003C000001A
:1000CE00000007800FC01FE01FF01FF80FFC07FE97
:1000DE0007FE0FFC1FF81FF01FE00FC00780000087
:1000EE00000000E001F003F833F879F1FDE3FFFFC3
:1000FE00FFFFFDE379F133F803F801F000E00000B3
:10010E0000000100038007C00FE01FF03FF87FFCE6
:10011E00FFFE7FFC3FF81FF00FE007C003800100D9
:10012E00AAAA5555AAAA5555AAAA5555AAAA5555C9
:10013E00AAAA5555AAAA5555AAAA5555AAAA5555B9
:04000300020B0001EB
:10043E005389F0438901758AFB758CF2D2A9D28C4F
:03044E00D2AF2208
:10025100D295D296C2977F04E4FEC296EF25E024A0
:1002610007F582E43400F583E0FD339295EF25E054
:100271002407F582E43400F583ED25E0F0D2960EF3
:10028100BE08D7E4FEC296EF25E02406F582E434E9
:1002910000F583E0FD339295EF25E02406F582E435
:1002A1003400F583ED25E0F0D2960EBE08D7E4FECA
:1002B100C296EF25E024FFF582E434FFF583E0FDEB
:1002C100339295EF25E024FFF582E434FFF583EDC9
:1002D10025E0F0D2960EBE08D7E4FEC296EF25E0E7
:1002E10024FEF582E434FFF583E0FD339295EF259A
:1002F100E024FEF582E434FFF583ED25E0F0D296AB
:100301000EBE08D71FEF6003020259D297D295C2E1
:010311009754
:0103120022C8
:03000B0002014EA1
:10014E00C0E0C083C082C0D075D000C000C004C063
:05015E0005C006C0070A
:10016300758AFB758CF27471250AF582E43400F507
:1001730083E0F4900007F07470250AF582E43400FC
:10018300F583E0F4900006F07451250AF582E43417
:1001930000F583E0F4900005F07450250AF582E43D
:1001A3003400F583E0F4900004F07431250AF582FD
:1001B300E43400F583E0F4900003F07430250AF58D
:1001C30082E43400F583E0F4900002F07411250A10
:1001D300F582E43400F583E0F4900001F074102517
:1001E3000AF582E43400F583E0F4900000F0E50BB7
:1001F300FFFD90000FF0AC0C90000EECF090000DA2
:10020300EDF090000CECF090000BEFF0AE0C9000D2
:100213000AEEF0900009EFF0900008EEF0AE0BFF4D
:10022300780108800633CE33CE92E0D8F88E0BF5F2
:0B0233000C050A050A530A1F120251B5
:10023E00D007D006D005D004D000D0D0D082D08345
:03024E00D0E032CB
:10031300E4FDFFFE7508C375095012043E7D80900D
:100323000010E4F0A3DDFC7D807508C3750950E57A
:10033300091509AA08700215084A70F375F020EE32
:10034300A4240EF582E5F03400F583E5822FF582CF
:10035300E43583F583E493900090F00F75F020EE7D
:10036300A4240EF582E5F03400F583E5822FF582AF
:10037300E43583F583E493900091F00FEFC3942069
:10038300400AE4FF0EEE940A4002E4FEE4FDEDC3EE
:100393009480509574122DF582E43400F583E0FCCB
:0F03A30074102DF582E43400F583ECF00D80DF4B
:1003BE00020313E493A3F8E493A34003F68001F23F
:1003CE0008DFF48029E493A3F85407240CC8C33340
:1003DE00C4540F4420C8834004F456800146F6DF0F
:1003EE00E4800B0102040810204080900003E47E9C
:1003FE00019360BCA3FF543F30E509541FFEE49304
:10040E00A360010ECF54C025E060A840B8E493A3CA
:10041E00FAE493A3F8E493A3C8C582C8CAC583CAF5
:10042E00F0A3C8C582C8CAC583CADFE9DEE780BEAD
:0100070000F8
:00000001FF
